{
  "_format": "hh-sol-artifact-1",
  "contractName": "Raffle",
  "sourceName": "contracts/Raffle.sol",
  "abi": [
    {
      "inputs": [
        {
          "internalType": "address",
          "name": "vrfCoordinatorV2",
          "type": "address"
        },
        {
          "internalType": "uint256",
          "name": "entranceFee",
          "type": "uint256"
        },
        {
          "internalType": "bytes32",
          "name": "gasLane",
          "type": "bytes32"
        },
        {
          "internalType": "uint64",
          "name": "subscriptionId",
          "type": "uint64"
        },
        {
          "internalType": "uint32",
          "name": "callbackGasLimit",
          "type": "uint32"
        },
        {
          "internalType": "uint256",
          "name": "interval",
          "type": "uint256"
        }
      ],
      "stateMutability": "nonpayable",
      "type": "constructor"
    },
    {
      "inputs": [
        {
          "internalType": "address",
          "name": "have",
          "type": "address"
        },
        {
          "internalType": "address",
          "name": "want",
          "type": "address"
        }
      ],
      "name": "OnlyCoordinatorCanFulfill",
      "type": "error"
    },
    {
      "inputs": [
        {
          "internalType": "uint256",
          "name": "currentBalance",
          "type": "uint256"
        },
        {
          "internalType": "uint256",
          "name": "numPlayers",
          "type": "uint256"
        },
        {
          "internalType": "uint256",
          "name": "raffleState",
          "type": "uint256"
        }
      ],
      "name": "Raffle_UpkeepNotNeeded",
      "type": "error"
    },
    {
      "inputs": [],
      "name": "Raffle__NotEnoughETHEntered",
      "type": "error"
    },
    {
      "inputs": [],
      "name": "Raffle__NotOpen",
      "type": "error"
    },
    {
      "inputs": [],
      "name": "Raffle__TransferFailed",
      "type": "error"
    },
    {
      "anonymous": false,
      "inputs": [
        {
          "indexed": true,
          "internalType": "address",
          "name": "player",
          "type": "address"
        }
      ],
      "name": "RaffleEnter",
      "type": "event"
    },
    {
      "anonymous": false,
      "inputs": [
        {
          "indexed": true,
          "internalType": "uint256",
          "name": "requestId",
          "type": "uint256"
        }
      ],
      "name": "RequestedRaffleWinner",
      "type": "event"
    },
    {
      "anonymous": false,
      "inputs": [
        {
          "indexed": true,
          "internalType": "address",
          "name": "winner",
          "type": "address"
        }
      ],
      "name": "WinnerPicked",
      "type": "event"
    },
    {
      "inputs": [
        {
          "internalType": "bytes",
          "name": "",
          "type": "bytes"
        }
      ],
      "name": "checkUpkeep",
      "outputs": [
        {
          "internalType": "bool",
          "name": "upkeepNeeded",
          "type": "bool"
        },
        {
          "internalType": "bytes",
          "name": "",
          "type": "bytes"
        }
      ],
      "stateMutability": "nonpayable",
      "type": "function"
    },
    {
      "inputs": [],
      "name": "enterRaffle",
      "outputs": [],
      "stateMutability": "payable",
      "type": "function"
    },
    {
      "inputs": [],
      "name": "getIntranceFee",
      "outputs": [
        {
          "internalType": "uint256",
          "name": "",
          "type": "uint256"
        }
      ],
      "stateMutability": "view",
      "type": "function"
    },
    {
      "inputs": [],
      "name": "getNumWords",
      "outputs": [
        {
          "internalType": "uint256",
          "name": "",
          "type": "uint256"
        }
      ],
      "stateMutability": "view",
      "type": "function"
    },
    {
      "inputs": [
        {
          "internalType": "uint256",
          "name": "index",
          "type": "uint256"
        }
      ],
      "name": "getPlayer",
      "outputs": [
        {
          "internalType": "address",
          "name": "",
          "type": "address"
        }
      ],
      "stateMutability": "view",
      "type": "function"
    },
    {
      "inputs": [],
      "name": "getRaffleState",
      "outputs": [
        {
          "internalType": "enum Raffle.RaffleState",
          "name": "",
          "type": "uint8"
        }
      ],
      "stateMutability": "view",
      "type": "function"
    },
    {
      "inputs": [],
      "name": "getRecentWinner",
      "outputs": [
        {
          "internalType": "address",
          "name": "",
          "type": "address"
        }
      ],
      "stateMutability": "view",
      "type": "function"
    },
    {
      "inputs": [
        {
          "internalType": "bytes",
          "name": "",
          "type": "bytes"
        }
      ],
      "name": "performUpkeep",
      "outputs": [],
      "stateMutability": "nonpayable",
      "type": "function"
    },
    {
      "inputs": [
        {
          "internalType": "uint256",
          "name": "requestId",
          "type": "uint256"
        },
        {
          "internalType": "uint256[]",
          "name": "randomWords",
          "type": "uint256[]"
        }
      ],
      "name": "rawFulfillRandomWords",
      "outputs": [],
      "stateMutability": "nonpayable",
      "type": "function"
    }
  ],
  "bytecode": "0x6101606040523480156200001257600080fd5b50604051620016e0380380620016e0833981810160405281019062000038919062000294565b858073ffffffffffffffffffffffffffffffffffffffff1660808173ffffffffffffffffffffffffffffffffffffffff1681525050508460a081815250508573ffffffffffffffffffffffffffffffffffffffff1660c08173ffffffffffffffffffffffffffffffffffffffff16815250508360e081815250508267ffffffffffffffff166101008167ffffffffffffffff16815250508163ffffffff166101208163ffffffff16815250506000600160146101000a81548160ff021916908360018111156200010d576200010c62000330565b5b0217905550426002819055508061014081815250505050505050506200035f565b600080fd5b600073ffffffffffffffffffffffffffffffffffffffff82169050919050565b6000620001608262000133565b9050919050565b620001728162000153565b81146200017e57600080fd5b50565b600081519050620001928162000167565b92915050565b6000819050919050565b620001ad8162000198565b8114620001b957600080fd5b50565b600081519050620001cd81620001a2565b92915050565b6000819050919050565b620001e881620001d3565b8114620001f457600080fd5b50565b6000815190506200020881620001dd565b92915050565b600067ffffffffffffffff82169050919050565b6200022d816200020e565b81146200023957600080fd5b50565b6000815190506200024d8162000222565b92915050565b600063ffffffff82169050919050565b6200026e8162000253565b81146200027a57600080fd5b50565b6000815190506200028e8162000263565b92915050565b60008060008060008060c08789031215620002b457620002b36200012e565b5b6000620002c489828a0162000181565b9650506020620002d789828a01620001bc565b9550506040620002ea89828a01620001f7565b9450506060620002fd89828a016200023c565b93505060806200031089828a016200027d565b92505060a06200032389828a01620001bc565b9150509295509295509295565b7f4e487b7100000000000000000000000000000000000000000000000000000000600052602160045260246000fd5b60805160a05160c05160e051610100516101205161014051611318620003c860003960006106cf0152600061058b01526000610568015260006105470152600061050b0152600081816102e7015261073d015260008181610227015261027b01526113186000f3fe6080604052600436106100865760003560e01c8063473f1ddc11610059578063473f1ddc1461011257806353a2c19a1461013d5780636e04ff0d14610168578063d53d49e3146101a6578063e55ae4e8146101d157610086565b8063115cbaf51461008b5780631fe543e3146100b65780632cfcc539146100df5780634585e33b146100e9575b600080fd5b34801561009757600080fd5b506100a061020e565b6040516100ad9190610af7565b60405180910390f35b3480156100c257600080fd5b506100dd60048036038101906100d89190610cb5565b610225565b005b6100e76102e5565b005b3480156100f557600080fd5b50610110600480360381019061010b9190610d6c565b610454565b005b34801561011e57600080fd5b50610127610653565b6040516101349190610dfa565b60405180910390f35b34801561014957600080fd5b5061015261067d565b60405161015f9190610e24565b60405180910390f35b34801561017457600080fd5b5061018f600480360381019061018a9190610ef4565b61068c565b60405161019d929190610fe0565b60405180910390f35b3480156101b257600080fd5b506101bb610739565b6040516101c89190610e24565b60405180910390f35b3480156101dd57600080fd5b506101f860048036038101906101f39190611010565b610761565b6040516102059190610dfa565b60405180910390f35b6000600160149054906101000a900460ff16905090565b7f000000000000000000000000000000000000000000000000000000000000000073ffffffffffffffffffffffffffffffffffffffff163373ffffffffffffffffffffffffffffffffffffffff16146102d757337f00000000000000000000000000000000000000000000000000000000000000006040517f1cf993f40000000000000000000000000000000000000000000000000000000081526004016102ce92919061103d565b60405180910390fd5b6102e182826107a8565b5050565b7f000000000000000000000000000000000000000000000000000000000000000034101561033f576040517fbd4e069500000000000000000000000000000000000000000000000000000000815260040160405180910390fd5b6000600181111561035357610352610a80565b5b600160149054906101000a900460ff16600181111561037557610374610a80565b5b146103ac576040517f1425571c00000000000000000000000000000000000000000000000000000000815260040160405180910390fd5b6000339080600181540180825580915050600190039060005260206000200160009091909190916101000a81548173ffffffffffffffffffffffffffffffffffffffff021916908373ffffffffffffffffffffffffffffffffffffffff1602179055503373ffffffffffffffffffffffffffffffffffffffff167f0805e1d667bddb8a95f0f09880cf94f403fb596ce79928d9f29b74203ba284d460405160405180910390a2565b600061046e6040518060200160405280600081525061068c565b509050806104dd5747600080549050600160149054906101000a900460ff16600181111561049f5761049e610a80565b5b6040517fe059521b0000000000000000000000000000000000000000000000000000000081526004016104d493929190611066565b60405180910390fd5b60018060146101000a81548160ff0219169083600181111561050257610501610a80565b5b021790555060007f000000000000000000000000000000000000000000000000000000000000000073ffffffffffffffffffffffffffffffffffffffff16635d3b1d307f00000000000000000000000000000000000000000000000000000000000000007f000000000000000000000000000000000000000000000000000000000000000060037f000000000000000000000000000000000000000000000000000000000000000060016040518663ffffffff1660e01b81526004016105cc959493929190611115565b602060405180830381600087803b1580156105e657600080fd5b505af11580156105fa573d6000803e3d6000fd5b505050506040513d601f19601f8201168201806040525081019061061e919061117d565b9050807fcd6e45c8998311cab7e9d4385596cac867e20a0587194b954fa3a731c93ce78b60405160405180910390a250505050565b6000600160009054906101000a900473ffffffffffffffffffffffffffffffffffffffff16905090565b6000600163ffffffff16905090565b600060606000600160149054906101000a900460ff1660018111156106b4576106b3610a80565b5b600060018111156106c8576106c7610a80565b5b14905060007f0000000000000000000000000000000000000000000000000000000000000000600254426106fc91906111d9565b1190506000806000805490501190506000804711905083801561071c5750825b80156107255750815b801561072e5750805b955050505050915091565b60007f0000000000000000000000000000000000000000000000000000000000000000905090565b60008082815481106107765761077561120d565b5b9060005260206000200160009054906101000a900473ffffffffffffffffffffffffffffffffffffffff169050919050565b60008080549050826000815181106107c3576107c261120d565b5b60200260200101516107d5919061126b565b905060008082815481106107ec576107eb61120d565b5b9060005260206000200160009054906101000a900473ffffffffffffffffffffffffffffffffffffffff16905080600160006101000a81548173ffffffffffffffffffffffffffffffffffffffff021916908373ffffffffffffffffffffffffffffffffffffffff1602179055506000600160146101000a81548160ff021916908360018111156108805761087f610a80565b5b0217905550600067ffffffffffffffff8111156108a05761089f610b72565b5b6040519080825280602002602001820160405280156108ce5781602001602082028036833780820191505090505b50600090805190602001906108e49291906109d9565b504260028190555060008173ffffffffffffffffffffffffffffffffffffffff1647604051610912906112cd565b60006040518083038185875af1925050503d806000811461094f576040519150601f19603f3d011682016040523d82523d6000602084013e610954565b606091505b505090508061098f576040517fa1d04b3900000000000000000000000000000000000000000000000000000000815260040160405180910390fd5b8173ffffffffffffffffffffffffffffffffffffffff167f5b690ec4a06fe979403046eaeea5b3ce38524683c3001f662c8b5a829632f7df60405160405180910390a25050505050565b828054828255906000526020600020908101928215610a52579160200282015b82811115610a515782518260006101000a81548173ffffffffffffffffffffffffffffffffffffffff021916908373ffffffffffffffffffffffffffffffffffffffff160217905550916020019190600101906109f9565b5b509050610a5f9190610a63565b5090565b5b80821115610a7c576000816000905550600101610a64565b5090565b7f4e487b7100000000000000000000000000000000000000000000000000000000600052602160045260246000fd5b60028110610ac057610abf610a80565b5b50565b6000819050610ad182610aaf565b919050565b6000610ae182610ac3565b9050919050565b610af181610ad6565b82525050565b6000602082019050610b0c6000830184610ae8565b92915050565b6000604051905090565b600080fd5b600080fd5b6000819050919050565b610b3981610b26565b8114610b4457600080fd5b50565b600081359050610b5681610b30565b92915050565b600080fd5b6000601f19601f8301169050919050565b7f4e487b7100000000000000000000000000000000000000000000000000000000600052604160045260246000fd5b610baa82610b61565b810181811067ffffffffffffffff82111715610bc957610bc8610b72565b5b80604052505050565b6000610bdc610b12565b9050610be88282610ba1565b919050565b600067ffffffffffffffff821115610c0857610c07610b72565b5b602082029050602081019050919050565b600080fd5b6000610c31610c2c84610bed565b610bd2565b90508083825260208201905060208402830185811115610c5457610c53610c19565b5b835b81811015610c7d5780610c698882610b47565b845260208401935050602081019050610c56565b5050509392505050565b600082601f830112610c9c57610c9b610b5c565b5b8135610cac848260208601610c1e565b91505092915050565b60008060408385031215610ccc57610ccb610b1c565b5b6000610cda85828601610b47565b925050602083013567ffffffffffffffff811115610cfb57610cfa610b21565b5b610d0785828601610c87565b9150509250929050565b600080fd5b60008083601f840112610d2c57610d2b610b5c565b5b8235905067ffffffffffffffff811115610d4957610d48610d11565b5b602083019150836001820283011115610d6557610d64610c19565b5b9250929050565b60008060208385031215610d8357610d82610b1c565b5b600083013567ffffffffffffffff811115610da157610da0610b21565b5b610dad85828601610d16565b92509250509250929050565b600073ffffffffffffffffffffffffffffffffffffffff82169050919050565b6000610de482610db9565b9050919050565b610df481610dd9565b82525050565b6000602082019050610e0f6000830184610deb565b92915050565b610e1e81610b26565b82525050565b6000602082019050610e396000830184610e15565b92915050565b600080fd5b600067ffffffffffffffff821115610e5f57610e5e610b72565b5b610e6882610b61565b9050602081019050919050565b82818337600083830152505050565b6000610e97610e9284610e44565b610bd2565b905082815260208101848484011115610eb357610eb2610e3f565b5b610ebe848285610e75565b509392505050565b600082601f830112610edb57610eda610b5c565b5b8135610eeb848260208601610e84565b91505092915050565b600060208284031215610f0a57610f09610b1c565b5b600082013567ffffffffffffffff811115610f2857610f27610b21565b5b610f3484828501610ec6565b91505092915050565b60008115159050919050565b610f5281610f3d565b82525050565b600081519050919050565b600082825260208201905092915050565b60005b83811015610f92578082015181840152602081019050610f77565b83811115610fa1576000848401525b50505050565b6000610fb282610f58565b610fbc8185610f63565b9350610fcc818560208601610f74565b610fd581610b61565b840191505092915050565b6000604082019050610ff56000830185610f49565b81810360208301526110078184610fa7565b90509392505050565b60006020828403121561102657611025610b1c565b5b600061103484828501610b47565b91505092915050565b60006040820190506110526000830185610deb565b61105f6020830184610deb565b9392505050565b600060608201905061107b6000830186610e15565b6110886020830185610e15565b6110956040830184610e15565b949350505050565b6000819050919050565b6110b08161109d565b82525050565b600067ffffffffffffffff82169050919050565b6110d3816110b6565b82525050565b600061ffff82169050919050565b6110f0816110d9565b82525050565b600063ffffffff82169050919050565b61110f816110f6565b82525050565b600060a08201905061112a60008301886110a7565b61113760208301876110ca565b61114460408301866110e7565b6111516060830185611106565b61115e6080830184611106565b9695505050505050565b60008151905061117781610b30565b92915050565b60006020828403121561119357611192610b1c565b5b60006111a184828501611168565b91505092915050565b7f4e487b7100000000000000000000000000000000000000000000000000000000600052601160045260246000fd5b60006111e482610b26565b91506111ef83610b26565b925082821015611202576112016111aa565b5b828203905092915050565b7f4e487b7100000000000000000000000000000000000000000000000000000000600052603260045260246000fd5b7f4e487b7100000000000000000000000000000000000000000000000000000000600052601260045260246000fd5b600061127682610b26565b915061128183610b26565b9250826112915761129061123c565b5b828206905092915050565b600081905092915050565b50565b60006112b760008361129c565b91506112c2826112a7565b600082019050919050565b60006112d8826112aa565b915081905091905056fea2646970667358221220a3402fa06da28781199aa22929c94ceb72135e96351904b9fd81df98dbf47d4e64736f6c63430008090033",
  "linkReferences": {},
  "deployedLinkReferences": {}
}