{
  "_format": "hh-sol-artifact-1",
  "contractName": "Raffle",
  "sourceName": "contracts/Raffle.sol",
  "abi": [
    {
      "inputs": [
        {
          "internalType": "address",
          "name": "vrfCoordinatorV2",
          "type": "address"
        },
        {
          "internalType": "uint256",
          "name": "entranceFee",
          "type": "uint256"
        },
        {
          "internalType": "bytes32",
          "name": "gasLane",
          "type": "bytes32"
        },
        {
          "internalType": "uint64",
          "name": "subscriptionId",
          "type": "uint64"
        },
        {
          "internalType": "uint32",
          "name": "callbackGasLimit",
          "type": "uint32"
        },
        {
          "internalType": "uint256",
          "name": "interval",
          "type": "uint256"
        }
      ],
      "stateMutability": "nonpayable",
      "type": "constructor"
    },
    {
      "inputs": [
        {
          "internalType": "address",
          "name": "have",
          "type": "address"
        },
        {
          "internalType": "address",
          "name": "want",
          "type": "address"
        }
      ],
      "name": "OnlyCoordinatorCanFulfill",
      "type": "error"
    },
    {
      "inputs": [
        {
          "internalType": "uint256",
          "name": "currentBalance",
          "type": "uint256"
        },
        {
          "internalType": "uint256",
          "name": "numPlayers",
          "type": "uint256"
        },
        {
          "internalType": "uint256",
          "name": "raffleState",
          "type": "uint256"
        }
      ],
      "name": "Raffle_UpkeepNotNeeded",
      "type": "error"
    },
    {
      "inputs": [],
      "name": "Raffle__NotEnoughETHEntered",
      "type": "error"
    },
    {
      "inputs": [],
      "name": "Raffle__NotOpen",
      "type": "error"
    },
    {
      "inputs": [],
      "name": "Raffle__TransferFailed",
      "type": "error"
    },
    {
      "anonymous": false,
      "inputs": [
        {
          "indexed": true,
          "internalType": "address",
          "name": "player",
          "type": "address"
        }
      ],
      "name": "RaffleEnter",
      "type": "event"
    },
    {
      "anonymous": false,
      "inputs": [
        {
          "indexed": true,
          "internalType": "uint256",
          "name": "requestId",
          "type": "uint256"
        }
      ],
      "name": "RequestedRaffleWinner",
      "type": "event"
    },
    {
      "anonymous": false,
      "inputs": [
        {
          "indexed": true,
          "internalType": "address",
          "name": "winner",
          "type": "address"
        }
      ],
      "name": "WinnerPicked",
      "type": "event"
    },
    {
      "inputs": [
        {
          "internalType": "bytes",
          "name": "",
          "type": "bytes"
        }
      ],
      "name": "checkUpkeep",
      "outputs": [
        {
          "internalType": "bool",
          "name": "upkeepNeeded",
          "type": "bool"
        },
        {
          "internalType": "bytes",
          "name": "",
          "type": "bytes"
        }
      ],
      "stateMutability": "nonpayable",
      "type": "function"
    },
    {
      "inputs": [],
      "name": "enterRaffle",
      "outputs": [],
      "stateMutability": "payable",
      "type": "function"
    },
    {
      "inputs": [],
      "name": "getEntranceFee",
      "outputs": [
        {
          "internalType": "uint256",
          "name": "",
          "type": "uint256"
        }
      ],
      "stateMutability": "view",
      "type": "function"
    },
    {
      "inputs": [],
      "name": "getInterval",
      "outputs": [
        {
          "internalType": "uint256",
          "name": "",
          "type": "uint256"
        }
      ],
      "stateMutability": "view",
      "type": "function"
    },
    {
      "inputs": [],
      "name": "getLatestTimeStamp",
      "outputs": [
        {
          "internalType": "uint256",
          "name": "",
          "type": "uint256"
        }
      ],
      "stateMutability": "view",
      "type": "function"
    },
    {
      "inputs": [],
      "name": "getNumWords",
      "outputs": [
        {
          "internalType": "uint256",
          "name": "",
          "type": "uint256"
        }
      ],
      "stateMutability": "pure",
      "type": "function"
    },
    {
      "inputs": [],
      "name": "getNumberOfPlayers",
      "outputs": [
        {
          "internalType": "uint256",
          "name": "",
          "type": "uint256"
        }
      ],
      "stateMutability": "view",
      "type": "function"
    },
    {
      "inputs": [
        {
          "internalType": "uint256",
          "name": "index",
          "type": "uint256"
        }
      ],
      "name": "getPlayer",
      "outputs": [
        {
          "internalType": "address",
          "name": "",
          "type": "address"
        }
      ],
      "stateMutability": "view",
      "type": "function"
    },
    {
      "inputs": [],
      "name": "getRaffleState",
      "outputs": [
        {
          "internalType": "enum Raffle.RaffleState",
          "name": "",
          "type": "uint8"
        }
      ],
      "stateMutability": "view",
      "type": "function"
    },
    {
      "inputs": [],
      "name": "getRecentWinner",
      "outputs": [
        {
          "internalType": "address",
          "name": "",
          "type": "address"
        }
      ],
      "stateMutability": "view",
      "type": "function"
    },
    {
      "inputs": [],
      "name": "getRequestConfirmations",
      "outputs": [
        {
          "internalType": "uint256",
          "name": "",
          "type": "uint256"
        }
      ],
      "stateMutability": "pure",
      "type": "function"
    },
    {
      "inputs": [
        {
          "internalType": "bytes",
          "name": "",
          "type": "bytes"
        }
      ],
      "name": "performUpkeep",
      "outputs": [],
      "stateMutability": "nonpayable",
      "type": "function"
    },
    {
      "inputs": [
        {
          "internalType": "uint256",
          "name": "requestId",
          "type": "uint256"
        },
        {
          "internalType": "uint256[]",
          "name": "randomWords",
          "type": "uint256[]"
        }
      ],
      "name": "rawFulfillRandomWords",
      "outputs": [],
      "stateMutability": "nonpayable",
      "type": "function"
    }
  ],
  "bytecode": "0x6101606040523480156200001257600080fd5b5060405162002ae138038062002ae183398181016040528101906200003891906200060b565b858073ffffffffffffffffffffffffffffffffffffffff1660808173ffffffffffffffffffffffffffffffffffffffff168152505050620000a27f12d552b93522d3ade551d25d0f4906987b5400ce708b62cc8ae39ffff721511760001b620004a260201b60201c565b620000d67f4dd27083ba06b7824db1bf846e0187f3491ac038b016bf279eda0e573badbadc60001b620004a260201b60201c565b6200010a7f33c9393e2a0966ffbd10b3d1ba11b149205fbb130a1ffb8084b6dd0f1556a43d60001b620004a260201b60201c565b8460a08181525050620001467f8a1f9597bc2806b46a0cf7ab22f6cbfb7bcf45016e34b420755b0d61a47e47a460001b620004a260201b60201c565b6200017a7f4f9ca278aa52941f962382cbe76ddf33990aae33adf98171303f62110fb8b15360001b620004a260201b60201c565b8573ffffffffffffffffffffffffffffffffffffffff1660c08173ffffffffffffffffffffffffffffffffffffffff1681525050620001e27fbb09e67a84232851fd1ffea0170cac46e4bf358b41eed6d3c041aa65a88904ab60001b620004a260201b60201c565b620002167f5e1d94d4faf95a7837725431ec4f6fd7499c77a3c3718850e6be76dda526b03660001b620004a260201b60201c565b8360e08181525050620002527f96305b851494650c34f261bfffaa51297702450631d27f422dc251d489197f3360001b620004a260201b60201c565b620002867f0133d6d827ab1d90e90c57e6e06724d18b35f3e312afa9eb32a2cfc409d6256d60001b620004a260201b60201c565b8267ffffffffffffffff166101008167ffffffffffffffff1681525050620002d77fc45ceb8ed6661495fcb972e8011b6804bb2f82b58d92d034c0361ae74bfec68360001b620004a260201b60201c565b6200030b7ffc5c4ccad572c0e25cafb393afd357fdebaf49ec8bd8cb871c1552735ca5e89c60001b620004a260201b60201c565b8163ffffffff166101208163ffffffff1681525050620003547f91f1e9dc381aebb42705f7833ec876b36eedeb70ebc849bd594e0f7d2b3f19ea60001b620004a260201b60201c565b620003887fe12adc438419561e21a49569560537dc890451da61f1ddf70c4904bc29a3377960001b620004a260201b60201c565b6000600160146101000a81548160ff02191690836001811115620003b157620003b0620006a7565b5b0217905550620003ea7fc4811a19d7d598f154f1f7ec1273c33f94b28a54d890c9900dacb74be6e0baca60001b620004a260201b60201c565b6200041e7f79bb1abfcb870219e513d8c5c06095b05fdd53d054011c0f113d87efe3e04fdc60001b620004a260201b60201c565b42600281905550620004597f6f7a3721b7014beb8f1bde12d63a5e922702b8d16bf8a07eac33d0150c06a12a60001b620004a260201b60201c565b6200048d7f8bca2afa76901f32fa1049089c497b4d545849a8a42c0a6772e47f55ef952e2b60001b620004a260201b60201c565b806101408181525050505050505050620006d6565b50565b600080fd5b600073ffffffffffffffffffffffffffffffffffffffff82169050919050565b6000620004d782620004aa565b9050919050565b620004e981620004ca565b8114620004f557600080fd5b50565b6000815190506200050981620004de565b92915050565b6000819050919050565b62000524816200050f565b81146200053057600080fd5b50565b600081519050620005448162000519565b92915050565b6000819050919050565b6200055f816200054a565b81146200056b57600080fd5b50565b6000815190506200057f8162000554565b92915050565b600067ffffffffffffffff82169050919050565b620005a48162000585565b8114620005b057600080fd5b50565b600081519050620005c48162000599565b92915050565b600063ffffffff82169050919050565b620005e581620005ca565b8114620005f157600080fd5b50565b6000815190506200060581620005da565b92915050565b60008060008060008060c087890312156200062b576200062a620004a5565b5b60006200063b89828a01620004f8565b96505060206200064e89828a0162000533565b95505060406200066189828a016200056e565b94505060606200067489828a01620005b3565b93505060806200068789828a01620005f4565b92505060a06200069a89828a0162000533565b9150509295509295509295565b7f4e487b7100000000000000000000000000000000000000000000000000000000600052602160045260246000fd5b60805160a05160c05160e05161010051610120516101405161239b62000746600039600081816110e501526112df01526000610cd401526000610cb101526000610c9001526000610c5401526000818161037e015261058301526000818161043f0152610493015261239b6000f3fe6080604052600436106100c25760003560e01c8063473f1ddc1161007f5780636e04ff0d116100595780636e04ff0d1461022557806391ad27b414610263578063e55ae4e81461028e578063fd6673f5146102cb576100c2565b8063473f1ddc146101a457806353a2c19a146101cf5780635f1b0fd8146101fa576100c2565b806309bc33a7146100c7578063115cbaf5146100f25780631fe543e31461011d5780632cfcc53914610146578063320229eb146101505780634585e33b1461017b575b600080fd5b3480156100d357600080fd5b506100dc6102f6565b6040516100e99190611b1c565b60405180910390f35b3480156100fe57600080fd5b506101076103a2565b6040516101149190611bae565b60405180910390f35b34801561012957600080fd5b50610144600480360381019061013f9190611d62565b61043d565b005b61014e6104fd565b005b34801561015c57600080fd5b50610165610900565b6040516101729190611b1c565b60405180910390f35b34801561018757600080fd5b506101a2600480360381019061019d9190611e19565b61098d565b005b3480156101b057600080fd5b506101b9610df4565b6040516101c69190611ea7565b60405180910390f35b3480156101db57600080fd5b506101e4610ea2565b6040516101f19190611b1c565b60405180910390f35b34801561020657600080fd5b5061020f610f35565b60405161021c9190611b1c565b60405180910390f35b34801561023157600080fd5b5061024c60048036038101906102479190611f77565b610fc6565b60405161025a929190612063565b60405180910390f35b34801561026f57600080fd5b50610278611257565b6040516102859190611b1c565b60405180910390f35b34801561029a57600080fd5b506102b560048036038101906102b09190612093565b611303565b6040516102c29190611ea7565b60405180910390f35b3480156102d757600080fd5b506102e06113cf565b6040516102ed9190611b1c565b60405180910390f35b60006103247f42097e13eef85f089a199bcc8e567ab67de508cb1e7680022e9487100b8b2ee060001b611460565b6103507f8da10f04d9be9d0a55a199ddac84cc754d55f28be6108f8ca5dbb76995d9922260001b611460565b61037c7fb093bf6a13b0dbedecac56f17e04c068001ccbcb5b3c7fec47d7db34950997ca60001b611460565b7f0000000000000000000000000000000000000000000000000000000000000000905090565b60006103d07fe62c331d8db093330f0d74aa0f5c39583244e8d972eb0389346d7030384c54b760001b611460565b6103fc7f0bfbdd537d2c0ae1568ce045704069e2cf63443473570e81d305463453e9e59a60001b611460565b6104287f752060c9c6f2fda7353af1a97597024b5d433a65df61b5a3c06928be779f611960001b611460565b600160149054906101000a900460ff16905090565b7f000000000000000000000000000000000000000000000000000000000000000073ffffffffffffffffffffffffffffffffffffffff163373ffffffffffffffffffffffffffffffffffffffff16146104ef57337f00000000000000000000000000000000000000000000000000000000000000006040517f1cf993f40000000000000000000000000000000000000000000000000000000081526004016104e69291906120c0565b60405180910390fd5b6104f98282611463565b5050565b6105297fe10a5698526dc5a382c7f53167a209af2d18de432de59c4a9139a6ea1b7244b860001b611460565b6105557ffd68695ef19dafd10cf7d6286d02c2f5f42401600ed766f75106ec39ac76a62860001b611460565b6105817fde419d8c16724287b7558bb06ffd3bf22e2183f55a82502704e71e8e4ad4ca2260001b611460565b7f0000000000000000000000000000000000000000000000000000000000000000341015610633576105d57fe6619341826c57aa1a22bd9b02e27d2bb963e967bbff9c61738da7e01791534760001b611460565b6106017fb0eb0bee0e45ad79b3ccf7cd665c106382968a1a4ee0c8e8deadaa6c9feb0ff060001b611460565b6040517fbd4e069500000000000000000000000000000000000000000000000000000000815260040160405180910390fd5b61065f7f8ca43e9e97844e182511e3be182c67267aa4cf590dfed5a1334b6b7d204e7ffe60001b611460565b61068b7f73be2fcc159d407a6a5b0b0f3a9420cc1377e43f257d9518fcd667ff60ebdfdf60001b611460565b6106b77f570220f741d8e8285c92f62a75a3e82fe04521959b4556336ee5e9eeda599cfc60001b611460565b600060018111156106cb576106ca611b37565b5b600160149054906101000a900460ff1660018111156106ed576106ec611b37565b5b1461077c5761071e7ff61d02e2d51610a2ce6227493a29324611c3243227c89ae2d9ed09758673e90160001b611460565b61074a7f205dfd19012b8bd668bf8a0e3f48db4177cf414c9a4980c4de04120b77790fb860001b611460565b6040517f1425571c00000000000000000000000000000000000000000000000000000000815260040160405180910390fd5b6107a87f703dedfc009b4e3803db53c0d051ad43c475ea330193a437b087e11699331b9a60001b611460565b6107d47fded8d17300e5050ab3b02b46bb362ac99cc4f301fb9da31bca78ef3ed266e00760001b611460565b6108007f6f638f84853a1f2dc8d86e69724591d42796762ad78d0dde2fa7ef76ec48519460001b611460565b6000339080600181540180825580915050600190039060005260206000200160009091909190916101000a81548173ffffffffffffffffffffffffffffffffffffffff021916908373ffffffffffffffffffffffffffffffffffffffff16021790555061088f7f3221c9651e42875677a5e201cfd53307e93c39965bfda7c8e24d1bf5eed821b260001b611460565b6108bb7fa05c8f7fa1031d18f33c1793e963a3788254ab19003d986a3c4e7d6af65c920560001b611460565b3373ffffffffffffffffffffffffffffffffffffffff167f0805e1d667bddb8a95f0f09880cf94f403fb596ce79928d9f29b74203ba284d460405160405180910390a2565b600061092d7ea38844996a717c0a7458c36290acc122099742ec73147ede0796d23544999d60001b611460565b6109597f048e6295121b21284e43d37713fdacca0561c3ca362bac4fb7c08e11aebf19b960001b611460565b6109857f5d51bf4595665dd5aa7018cce5a53d7c85a7804871ad119eb726cf3d68ca455060001b611460565b600254905090565b6109b97f72004665d854513bf12667950556cc1bdd04a4241126a416ef0bb5e0789e711360001b611460565b6109e57f0b614bc3c4f2eac608b9a2ee7cc3810fe4cb9daf37dae2be35878e4b37ad568d60001b611460565b610a117fa743d2e0dd6d59a2fae37c7fd8311d380a97b31c0aa5b9aad07f4287ded3147e60001b611460565b6000610a2b60405180602001604052806000815250610fc6565b509050610a5a7ffc460ef5bf4fb5d353086e56e96eec89bb66cd9e5fd0a1850b59747a451ff75860001b611460565b610a867f7876ff0dfdc7ad7459e5d53e6fc2c9654065402acbda85b9b86200d8f1bdfea160001b611460565b80610b4a57610ab77f3fbd2f35a116251a918a1d7e1be880f0579876b2a5379f1fd317ec9b8052ac1d60001b611460565b610ae37f84441a438af5aae25d0022a636f4ca2b944f8ac87ce71ad2d894e1eb3fc8276060001b611460565b47600080549050600160149054906101000a900460ff166001811115610b0c57610b0b611b37565b5b6040517fe059521b000000000000000000000000000000000000000000000000000000008152600401610b41939291906120e9565b60405180910390fd5b610b767f3bcb32d7948c89e115bda58ba859e1339241ee6f4911273122f716bbe045916960001b611460565b610ba27f49c13d60137ffd29f2cd068a4f78d2530a3cf196e1b8214a8b48bad2e3e19cd960001b611460565b610bce7f3b7780c3da29dce4fcdfb82ba01f5b58e3f1bb5974c82ae545ec4addfaf2b18860001b611460565b60018060146101000a81548160ff02191690836001811115610bf357610bf2611b37565b5b0217905550610c247fcf662c257439f9216700bd571d87a6faa126b7cbc202c7b73ac2f945a24be74360001b611460565b610c507f785f782f91e17e2c36f4a7594e2599dc11961adec8892730d77362fff8fdb74660001b611460565b60007f000000000000000000000000000000000000000000000000000000000000000073ffffffffffffffffffffffffffffffffffffffff16635d3b1d307f00000000000000000000000000000000000000000000000000000000000000007f000000000000000000000000000000000000000000000000000000000000000060037f000000000000000000000000000000000000000000000000000000000000000060016040518663ffffffff1660e01b8152600401610d15959493929190612198565b602060405180830381600087803b158015610d2f57600080fd5b505af1158015610d43573d6000803e3d6000fd5b505050506040513d601f19601f82011682018060405250810190610d679190612200565b9050610d957f03617578484676e7996b4fd4b9cf2757b276bce088f59e2e486f89bf64c9252c60001b611460565b610dc17fd01cb3b7514e9cb10369f777abc44c1b3ed3ca9e3e3f171c2bf298d22b78b1f460001b611460565b807fcd6e45c8998311cab7e9d4385596cac867e20a0587194b954fa3a731c93ce78b60405160405180910390a250505050565b6000610e227f0f2863777be997d8c4ee3315616eb2056af13fb25b262b5ca77192ea354db1f660001b611460565b610e4e7fc584550538ebe449c18e07b80ae2a04284736eb55a585e7a2126e866962a213860001b611460565b610e7a7fafe277311aff3ac6dcb3461d9cf258392c3cce911c440477700124deca3c09b360001b611460565b600160009054906101000a900473ffffffffffffffffffffffffffffffffffffffff16905090565b6000610ed07f164e4c5aed08607178dbcd7ca932d93e10f7b4a9ca468401e2eddce88ca9c7a960001b611460565b610efc7f6abaf2a91f85fee028b78e67b950e9a755e4a1eb89c89e2f45b6207f0e0ce08f60001b611460565b610f287f9cae6c84ec4fb25c6e2dd43f8233ed12026f027f88b3aff08a8c50a38108931d60001b611460565b600163ffffffff16905090565b6000610f637f6ddc988fa853a2c84df41c332f96b67e2c61971367a7a420a4dae46f87f6fc9460001b611460565b610f8f7fbd91c31865ddbba56e858cb718a2b9459ae8407b4b820477b4b2dc988a423ef060001b611460565b610fbb7fc3fac3b60daa77783813c502ef156234e13a58d0adae1205d2a83b83e176c7fc60001b611460565b600361ffff16905090565b60006060610ff67faa056dfeab08fa33be6cbd2c14d5c5397aa2b274b6c1b85ae17dc3a6f31cdc9460001b611460565b6110227f642aa50db88796d58be47207efd1d7edac711437f26118a834655fe65b036c0a60001b611460565b61104e7fa186561faff5ce058ac1bbb6272863241ba887277a0575c6fce164401c152d2760001b611460565b6000600160149054906101000a900460ff16600181111561107257611071611b37565b5b6000600181111561108657611085611b37565b5b1490506110b57fc00a726c9489598d01c97f38178a2f0a4e47c1e9126410c45f779b3d3a01686460001b611460565b6110e17fd28550e19600607ce2e8317a129dc42aa2460306bdd4537d1735bc21564cd9e960001b611460565b60007f000000000000000000000000000000000000000000000000000000000000000060025442611112919061225c565b1190506111417f10b181c1a623f444e6bd584453b07afb86bf443fe0682a0a0fe20efa736265b660001b611460565b61116d7fd6d5fcbc6716d712a91cd86ce039596d523fa23b2a04c40773b8d2c31c03e65360001b611460565b6000806000805490501190506111a57f8029dbd3e77045535ee32db1295769f8e70d217faa8de53b8fadbe7122d7b7ae60001b611460565b6111d17f9fb35f4b30fba2ae4bc78014f450ecd9a35e6b72432cd5d545deee704012a47060001b611460565b600080471190506112047fba5ffc28f601283b0f7f42cdf0f19f71aecd895263259da7659662fe432616bb60001b611460565b6112307f80b2e2ba27d7046163d0639da4e28c447df795765454d8f1a4ae5933c072dbb960001b611460565b83801561123a5750825b80156112435750815b801561124c5750805b955050505050915091565b60006112857fb5446219c9da16d020fc9b2f6595067ea91f9cda012f3f9c0fca8b75754533b960001b611460565b6112b17f0be9b8aee909917d9e00e31b4ef4ad3658bedb426702709304077246b81de1eb60001b611460565b6112dd7f05859def31ee1ce2d8beabe17e2858d11044eb0459b5aa0d58d44d85541c738b60001b611460565b7f0000000000000000000000000000000000000000000000000000000000000000905090565b60006113317f554e31a488327d6fe83ef3f8764944909244a631626db3551a1057e599abeecb60001b611460565b61135d7f257ca06e33c22f8d6cce60b4ea57858d0e0fc707d69b42428f52160a7a69781460001b611460565b6113897fefd9a43e18a9348a961b92fe204ada9faa6a88f40e89fb239b892e75a9d6eca860001b611460565b6000828154811061139d5761139c612290565b5b9060005260206000200160009054906101000a900473ffffffffffffffffffffffffffffffffffffffff169050919050565b60006113fd7f719b50e59dcf796b6acad38b8a545cae2a69cdbba8e9af4a2fd20305193955b360001b611460565b6114297f988aaa8e0b4ab6d592518ff8281a5c4dd00d65fcfc932e8019ac2b9d422544b060001b611460565b6114557fbd61d042183128c8f7fc91e481180454473af31cd0e6353c623b277321e6823f60001b611460565b600080549050905090565b50565b61148f7f94a258fcb667d4031f7d76c00993472c928e96c7d3e3c09c349be58563b0105e60001b611460565b6114bb7f76096dd6cab22b5c60149341cbec14e4fedbe8e0b4f621c9669095eb8bf66a8f60001b611460565b6114e77f3470ae392ead671787b354ff7e9e539ae2f5a34165223318716384ba70d367fb60001b611460565b600080805490508260008151811061150257611501612290565b5b602002602001015161151491906122ee565b90506115427f82bb522c2e458acf806df282403683c68982d99e410f103e08001b39d9cb14ee60001b611460565b61156e7f63dfb4687d92014a4727d07299dbcf00c51795d6f7c79d975387ea7447999c7660001b611460565b600080828154811061158357611582612290565b5b9060005260206000200160009054906101000a900473ffffffffffffffffffffffffffffffffffffffff1690506115dc7fb3ec651b886225994561a0814447265b563ff19cf0bf5c4dd02b39f8c7aa226560001b611460565b6116087fb89627ff6c27a5f6a78d7f40716db7b7d76debc5b1361d934e9477dbd245e52f60001b611460565b80600160006101000a81548173ffffffffffffffffffffffffffffffffffffffff021916908373ffffffffffffffffffffffffffffffffffffffff1602179055506116757fbb01f2d100bd38af23af5df30f4ca7d2402215e8069ef086f7ff412ba1e2586160001b611460565b6116a17f651d768ef001655a1223e2640bfe3f4d1c28393eb18a97d3a20be08c3d4d789b60001b611460565b6000600160146101000a81548160ff021916908360018111156116c7576116c6611b37565b5b02179055506116f87f71c49810a55c263b23226232739592a48d8fcc32dad6d75856efc53b234ce31760001b611460565b6117247f30702c69f4aa7e41d56e3e6e6917d63b015b5283eced92d1a348a8cdb9b6d08b60001b611460565b600067ffffffffffffffff81111561173f5761173e611c1f565b5b60405190808252806020026020018201604052801561176d5781602001602082028036833780820191505090505b5060009080519060200190611783929190611a5c565b506117b07f526d4b698bc30e93c3988dd2196df4e4f716c18b9fee8747288b1b23e9573ebf60001b611460565b6117dc7f50dc341d646fbcdeae897ff3436f6fbfe7bd1bebf53d00e0422b42abbacc042160001b611460565b4260028190555061180f7f2a1f7ab10bb74042bb464a94eae9998d488ae8efba3478614cdb9d7e1237671060001b611460565b61183b7f7f55ab367b24b7f4d399b1e99ae023fb61368b950850554844a5df439437903360001b611460565b60008173ffffffffffffffffffffffffffffffffffffffff164760405161186190612350565b60006040518083038185875af1925050503d806000811461189e576040519150601f19603f3d011682016040523d82523d6000602084013e6118a3565b606091505b505090506118d37fa2b38dd14397437a957bf489bd960cdcce9ac13c295dba6e3a1562e93cf9490660001b611460565b6118ff7f44952719dddb64f391df3bdfb4d3b13c52ccda9084dced8b7a429ee4b9a86a1160001b611460565b8061198e576119307fe1d562c250fe639279a4b71e4e02716916d02ce58ad0c52d520efe7ad988ce8460001b611460565b61195c7f4d85c84f450538ed169de3d0756b47819b9ecd9f53f82923a543a05b06c9e8c860001b611460565b6040517fa1d04b3900000000000000000000000000000000000000000000000000000000815260040160405180910390fd5b6119ba7fb74617eedf2c7f0eb0faa9b4ac8a433ec695ff5d68671fe21d365ebc5192cfb960001b611460565b6119e67f300f0e45dc2d075b6490597e6e1994eb1a545f0ee5934114c99f56ea503a218960001b611460565b611a127f2807a8210591f7c127923ae7d70b797084f91f6f75ffcd170cbc45288c08931960001b611460565b8173ffffffffffffffffffffffffffffffffffffffff167f5b690ec4a06fe979403046eaeea5b3ce38524683c3001f662c8b5a829632f7df60405160405180910390a25050505050565b828054828255906000526020600020908101928215611ad5579160200282015b82811115611ad45782518260006101000a81548173ffffffffffffffffffffffffffffffffffffffff021916908373ffffffffffffffffffffffffffffffffffffffff16021790555091602001919060010190611a7c565b5b509050611ae29190611ae6565b5090565b5b80821115611aff576000816000905550600101611ae7565b5090565b6000819050919050565b611b1681611b03565b82525050565b6000602082019050611b316000830184611b0d565b92915050565b7f4e487b7100000000000000000000000000000000000000000000000000000000600052602160045260246000fd5b60028110611b7757611b76611b37565b5b50565b6000819050611b8882611b66565b919050565b6000611b9882611b7a565b9050919050565b611ba881611b8d565b82525050565b6000602082019050611bc36000830184611b9f565b92915050565b6000604051905090565b600080fd5b600080fd5b611be681611b03565b8114611bf157600080fd5b50565b600081359050611c0381611bdd565b92915050565b600080fd5b6000601f19601f8301169050919050565b7f4e487b7100000000000000000000000000000000000000000000000000000000600052604160045260246000fd5b611c5782611c0e565b810181811067ffffffffffffffff82111715611c7657611c75611c1f565b5b80604052505050565b6000611c89611bc9565b9050611c958282611c4e565b919050565b600067ffffffffffffffff821115611cb557611cb4611c1f565b5b602082029050602081019050919050565b600080fd5b6000611cde611cd984611c9a565b611c7f565b90508083825260208201905060208402830185811115611d0157611d00611cc6565b5b835b81811015611d2a5780611d168882611bf4565b845260208401935050602081019050611d03565b5050509392505050565b600082601f830112611d4957611d48611c09565b5b8135611d59848260208601611ccb565b91505092915050565b60008060408385031215611d7957611d78611bd3565b5b6000611d8785828601611bf4565b925050602083013567ffffffffffffffff811115611da857611da7611bd8565b5b611db485828601611d34565b9150509250929050565b600080fd5b60008083601f840112611dd957611dd8611c09565b5b8235905067ffffffffffffffff811115611df657611df5611dbe565b5b602083019150836001820283011115611e1257611e11611cc6565b5b9250929050565b60008060208385031215611e3057611e2f611bd3565b5b600083013567ffffffffffffffff811115611e4e57611e4d611bd8565b5b611e5a85828601611dc3565b92509250509250929050565b600073ffffffffffffffffffffffffffffffffffffffff82169050919050565b6000611e9182611e66565b9050919050565b611ea181611e86565b82525050565b6000602082019050611ebc6000830184611e98565b92915050565b600080fd5b600067ffffffffffffffff821115611ee257611ee1611c1f565b5b611eeb82611c0e565b9050602081019050919050565b82818337600083830152505050565b6000611f1a611f1584611ec7565b611c7f565b905082815260208101848484011115611f3657611f35611ec2565b5b611f41848285611ef8565b509392505050565b600082601f830112611f5e57611f5d611c09565b5b8135611f6e848260208601611f07565b91505092915050565b600060208284031215611f8d57611f8c611bd3565b5b600082013567ffffffffffffffff811115611fab57611faa611bd8565b5b611fb784828501611f49565b91505092915050565b60008115159050919050565b611fd581611fc0565b82525050565b600081519050919050565b600082825260208201905092915050565b60005b83811015612015578082015181840152602081019050611ffa565b83811115612024576000848401525b50505050565b600061203582611fdb565b61203f8185611fe6565b935061204f818560208601611ff7565b61205881611c0e565b840191505092915050565b60006040820190506120786000830185611fcc565b818103602083015261208a818461202a565b90509392505050565b6000602082840312156120a9576120a8611bd3565b5b60006120b784828501611bf4565b91505092915050565b60006040820190506120d56000830185611e98565b6120e26020830184611e98565b9392505050565b60006060820190506120fe6000830186611b0d565b61210b6020830185611b0d565b6121186040830184611b0d565b949350505050565b6000819050919050565b61213381612120565b82525050565b600067ffffffffffffffff82169050919050565b61215681612139565b82525050565b600061ffff82169050919050565b6121738161215c565b82525050565b600063ffffffff82169050919050565b61219281612179565b82525050565b600060a0820190506121ad600083018861212a565b6121ba602083018761214d565b6121c7604083018661216a565b6121d46060830185612189565b6121e16080830184612189565b9695505050505050565b6000815190506121fa81611bdd565b92915050565b60006020828403121561221657612215611bd3565b5b6000612224848285016121eb565b91505092915050565b7f4e487b7100000000000000000000000000000000000000000000000000000000600052601160045260246000fd5b600061226782611b03565b915061227283611b03565b9250828210156122855761228461222d565b5b828203905092915050565b7f4e487b7100000000000000000000000000000000000000000000000000000000600052603260045260246000fd5b7f4e487b7100000000000000000000000000000000000000000000000000000000600052601260045260246000fd5b60006122f982611b03565b915061230483611b03565b925082612314576123136122bf565b5b828206905092915050565b600081905092915050565b50565b600061233a60008361231f565b91506123458261232a565b600082019050919050565b600061235b8261232d565b915081905091905056fea264697066735822122099582def771613c28c47a08b901afa45de68c4bedfd2448ca24e536bf883832d64736f6c63430008090033",
  "linkReferences": {},
  "deployedLinkReferences": {}
}